{
  "_format": "hh-sol-artifact-1",
  "contractName": "MySmartContract",
  "sourceName": "contracts/MySmartContract.sol",
  "abi": [
    {
      "inputs": [
        {
          "internalType": "uint256",
          "name": "initialData",
          "type": "uint256"
        }
      ],
      "stateMutability": "nonpayable",
      "type": "constructor"
    },
    {
      "inputs": [],
      "name": "data",
      "outputs": [
        {
          "internalType": "uint256",
          "name": "",
          "type": "uint256"
        }
      ],
      "stateMutability": "view",
      "type": "function"
    },
    {
      "inputs": [],
      "name": "getData",
      "outputs": [
        {
          "internalType": "uint256",
          "name": "",
          "type": "uint256"
        }
      ],
      "stateMutability": "view",
      "type": "function"
    },
    {
      "inputs": [
        {
          "internalType": "uint256",
          "name": "_data",
          "type": "uint256"
        }
      ],
      "name": "setData",
      "outputs": [],
      "stateMutability": "nonpayable",
      "type": "function"
    },
    {
      "inputs": [],
      "name": "withdraw",
      "outputs": [],
      "stateMutability": "nonpayable",
      "type": "function"
    }
  ],
  "bytecode": "0x608060405234801561001057600080fd5b5060405161033f38038061033f83398181016040528101906100329190610054565b806000819055505061009e565b60008151905061004e81610087565b92915050565b60006020828403121561006657600080fd5b60006100748482850161003f565b91505092915050565b6000819050919050565b6100908161007d565b811461009b57600080fd5b50565b610292806100ad6000396000f3fe608060405234801561001057600080fd5b506004361061004c5760003560e01c80633bc5de30146100515780633ccfd60b1461006f5780635b4b73a91461007957806373d4a13a14610095575b600080fd5b6100596100b3565b604051610066919061020f565b60405180910390f35b6100776100bc565b005b610093600480360381019061008e9190610177565b610152565b005b61009d61015c565b6040516100aa919061020f565b60405180910390f35b60008054905090565b6000805411610100576040517f08c379a00000000000000000000000000000000000000000000000000000000081526004016100f7906101ef565b60405180910390fd5b3373ffffffffffffffffffffffffffffffffffffffff166108fc6000549081150290604051600060405180830381858888f19350505050158015610148573d6000803e3d6000fd5b5060008081905550565b8060008190555050565b60005481565b60008135905061017181610245565b92915050565b60006020828403121561018957600080fd5b600061019784828501610162565b91505092915050565b60006101ad60148361022a565b91507f4e6f2066756e647320746f2077697468647261770000000000000000000000006000830152602082019050919050565b6101e98161023b565b82525050565b60006020820190508181036000830152610208816101a0565b9050919050565b600060208201905061022460008301846101e0565b92915050565b600082825260208201905092915050565b6000819050919050565b61024e8161023b565b811461025957600080fd5b5056fea2646970667358221220e57896033276e3afc243137f00224336738ec4f9917d714b75232bfe95ec1b2664736f6c63430008000033",
  "linkReferences": {},
  "deployedLinkReferences": {}
}